{"tests/output/contracts/rental-agreement/RA_ProcessExecution.sol":{"RA_ProcessExecution":{"abi":[{"inputs":[{"internalType":"address[3]","name":"_participants","type":"address[3]"}],"stateMutability":"nonpayable","type":"constructor"},{"inputs":[{"internalType":"uint256","name":"id","type":"uint256"}],"name":"SubChoreography_1sp0n7o","outputs":[],"stateMutability":"nonpayable","type":"function"},{"inputs":[],"name":"bond","outputs":[{"internalType":"int256","name":"","type":"int256"}],"stateMutability":"view","type":"function"},{"inputs":[{"internalType":"uint256","name":"id","type":"uint256"}],"name":"enact","outputs":[],"stateMutability":"nonpayable","type":"function"},{"inputs":[{"internalType":"uint256","name":"","type":"uint256"}],"name":"participants","outputs":[{"internalType":"address","name":"","type":"address"}],"stateMutability":"view","type":"function"},{"inputs":[{"internalType":"int256","name":"_weeklyRent","type":"int256"}],"name":"setWeeklyRent","outputs":[],"stateMutability":"nonpayable","type":"function"},{"inputs":[{"internalType":"uint256","name":"","type":"uint256"}],"name":"tokenState","outputs":[{"internalType":"uint256","name":"","type":"uint256"}],"stateMutability":"view","type":"function"},{"inputs":[],"name":"weeklyRent","outputs":[{"internalType":"int256","name":"","type":"int256"}],"stateMutability":"view","type":"function"}],"evm":{"bytecode":{"linkReferences":{},"object":"6080604052610fa06005556103e860065534801561001c57600080fd5b5060405161066538038061066583398101604081905261003b916100d8565b610048600282600361004f565b505061016a565b8260038101928215610097579160200282015b8281111561009757825182546001600160a01b0319166001600160a01b03909116178255602090920191600190910190610062565b506100a39291506100a7565b5090565b5b808211156100a357600081556001016100a8565b80516001600160a01b03811681146100d357600080fd5b919050565b6000606082840312156100ea57600080fd5b82601f8301126100f957600080fd5b604051606081016001600160401b038111828210171561012957634e487b7160e01b600052604160045260246000fd5b60405280606084018581111561013e57600080fd5b845b8181101561015f57610151816100bc565b835260209283019201610140565b509195945050505050565b6104ec806101796000396000f3fe608060405234801561001057600080fd5b506004361061006d5760003560e01c80631fc8dead1461007257806335c1d349146100875780635e9cc2a9146100b757806364c9ec6f146100ca5780639745cc3d146100e1578063ae82ae4b146100f4578063f2adb39b14610107575b600080fd5b610085610080366004610402565b600655565b005b61009a610095366004610402565b610110565b6040516001600160a01b0390911681526020015b60405180910390f35b6100856100c5366004610402565b610130565b6100d360055481565b6040519081526020016100ae565b6100d36100ef366004610402565b61036c565b610085610102366004610402565b610383565b6100d360065481565b6002816003811061012057600080fd5b01546001600160a01b0316905081565b6000545b80156103615780600116600114156101525760011916600217610134565b80600416600414156101675760041916610361565b80600816600814156101a55781600114801561019057506002600001546001600160a01b031633145b156101a5576000915060081916601017610134565b8060201660201415610214578160021480156101cd575060028001546001600160a01b031633145b156101e2576000915060201916604017610134565b8160061480156101fe575060028001546001600160a01b031633145b1561021457600091506020191661010017610134565b80604016604014156102845781600314801561023d57506002600001546001600160a01b031633145b15610252576000915060401916600417610134565b81600414801561026f57506002600001546001600160a01b031633145b15610284576000915060401916608017610134565b80608016608014156102c2578160051480156102ad57506002600101546001600160a01b031633145b156102c2576000915060801916600417610134565b80610100166101001415610303578160071480156102ed57506002600101546001600160a01b031633145b1561030357600091506101001916600417610134565b80600216600214156103465760065461031d906004610431565b60055413156103325760021916600417610134565b600219166001600081015561020817610134565b80610410166104101415610361576104101916602017610134565b806000805b01555050565b6000816002811061037c57600080fd5b0154905081565b6001545b80156103f85780600216600214156103f8578160011480156103b657506002600001546001600160a01b031633145b156103cb576000915060021916600217610387565b8160021480156103e857506002600001546001600160a01b031633145b156103f857610208600055600219165b8060006001610366565b60006020828403121561041457600080fd5b5035919050565b634e487b7160e01b600052601160045260246000fd5b60006001600160ff1b03818413828413808216868404861116156104575761045761041b565b600160ff1b60008712828116878305891216156104765761047661041b565b600087129250878205871284841616156104925761049261041b565b878505871281841616156104a8576104a861041b565b50505092909302939250505056fea264697066735822122032a214571e1d11d698c3f2c4be8083bcb5a421e3f0fde7a5730db525b17851e164736f6c63430008090033","opcodes":"PUSH1 0x80 PUSH1 0x40 MSTORE PUSH2 0xFA0 PUSH1 0x5 SSTORE PUSH2 0x3E8 PUSH1 0x6 SSTORE CALLVALUE DUP1 ISZERO PUSH2 0x1C JUMPI PUSH1 0x0 DUP1 REVERT JUMPDEST POP PUSH1 0x40 MLOAD PUSH2 0x665 CODESIZE SUB DUP1 PUSH2 0x665 DUP4 CODECOPY DUP2 ADD PUSH1 0x40 DUP2 SWAP1 MSTORE PUSH2 0x3B SWAP2 PUSH2 0xD8 JUMP JUMPDEST PUSH2 0x48 PUSH1 0x2 DUP3 PUSH1 0x3 PUSH2 0x4F JUMP JUMPDEST POP POP PUSH2 0x16A JUMP JUMPDEST DUP3 PUSH1 0x3 DUP2 ADD SWAP3 DUP3 ISZERO PUSH2 0x97 JUMPI SWAP2 PUSH1 0x20 MUL DUP3 ADD JUMPDEST DUP3 DUP2 GT ISZERO PUSH2 0x97 JUMPI DUP3 MLOAD DUP3 SLOAD PUSH1 0x1 PUSH1 0x1 PUSH1 0xA0 SHL SUB NOT AND PUSH1 0x1 PUSH1 0x1 PUSH1 0xA0 SHL SUB SWAP1 SWAP2 AND OR DUP3 SSTORE PUSH1 0x20 SWAP1 SWAP3 ADD SWAP2 PUSH1 0x1 SWAP1 SWAP2 ADD SWAP1 PUSH2 0x62 JUMP JUMPDEST POP PUSH2 0xA3 SWAP3 SWAP2 POP PUSH2 0xA7 JUMP JUMPDEST POP SWAP1 JUMP JUMPDEST JUMPDEST DUP1 DUP3 GT ISZERO PUSH2 0xA3 JUMPI PUSH1 0x0 DUP2 SSTORE PUSH1 0x1 ADD PUSH2 0xA8 JUMP JUMPDEST DUP1 MLOAD PUSH1 0x1 PUSH1 0x1 PUSH1 0xA0 SHL SUB DUP2 AND DUP2 EQ PUSH2 0xD3 JUMPI PUSH1 0x0 DUP1 REVERT JUMPDEST SWAP2 SWAP1 POP JUMP JUMPDEST PUSH1 0x0 PUSH1 0x60 DUP3 DUP5 SUB SLT ISZERO PUSH2 0xEA JUMPI PUSH1 0x0 DUP1 REVERT JUMPDEST DUP3 PUSH1 0x1F DUP4 ADD SLT PUSH2 0xF9 JUMPI PUSH1 0x0 DUP1 REVERT JUMPDEST PUSH1 0x40 MLOAD PUSH1 0x60 DUP2 ADD PUSH1 0x1 PUSH1 0x1 PUSH1 0x40 SHL SUB DUP2 GT DUP3 DUP3 LT OR ISZERO PUSH2 0x129 JUMPI PUSH4 0x4E487B71 PUSH1 0xE0 SHL PUSH1 0x0 MSTORE PUSH1 0x41 PUSH1 0x4 MSTORE PUSH1 0x24 PUSH1 0x0 REVERT JUMPDEST PUSH1 0x40 MSTORE DUP1 PUSH1 0x60 DUP5 ADD DUP6 DUP2 GT ISZERO PUSH2 0x13E JUMPI PUSH1 0x0 DUP1 REVERT JUMPDEST DUP5 JUMPDEST DUP2 DUP2 LT ISZERO PUSH2 0x15F JUMPI PUSH2 0x151 DUP2 PUSH2 0xBC JUMP JUMPDEST DUP4 MSTORE PUSH1 0x20 SWAP3 DUP4 ADD SWAP3 ADD PUSH2 0x140 JUMP JUMPDEST POP SWAP2 SWAP6 SWAP5 POP POP POP POP POP JUMP JUMPDEST PUSH2 0x4EC DUP1 PUSH2 0x179 PUSH1 0x0 CODECOPY PUSH1 0x0 RETURN INVALID PUSH1 0x80 PUSH1 0x40 MSTORE CALLVALUE DUP1 ISZERO PUSH2 0x10 JUMPI PUSH1 0x0 DUP1 REVERT JUMPDEST POP PUSH1 0x4 CALLDATASIZE LT PUSH2 0x6D JUMPI PUSH1 0x0 CALLDATALOAD PUSH1 0xE0 SHR DUP1 PUSH4 0x1FC8DEAD EQ PUSH2 0x72 JUMPI DUP1 PUSH4 0x35C1D349 EQ PUSH2 0x87 JUMPI DUP1 PUSH4 0x5E9CC2A9 EQ PUSH2 0xB7 JUMPI DUP1 PUSH4 0x64C9EC6F EQ PUSH2 0xCA JUMPI DUP1 PUSH4 0x9745CC3D EQ PUSH2 0xE1 JUMPI DUP1 PUSH4 0xAE82AE4B EQ PUSH2 0xF4 JUMPI DUP1 PUSH4 0xF2ADB39B EQ PUSH2 0x107 JUMPI JUMPDEST PUSH1 0x0 DUP1 REVERT JUMPDEST PUSH2 0x85 PUSH2 0x80 CALLDATASIZE PUSH1 0x4 PUSH2 0x402 JUMP JUMPDEST PUSH1 0x6 SSTORE JUMP JUMPDEST STOP JUMPDEST PUSH2 0x9A PUSH2 0x95 CALLDATASIZE PUSH1 0x4 PUSH2 0x402 JUMP JUMPDEST PUSH2 0x110 JUMP JUMPDEST PUSH1 0x40 MLOAD PUSH1 0x1 PUSH1 0x1 PUSH1 0xA0 SHL SUB SWAP1 SWAP2 AND DUP2 MSTORE PUSH1 0x20 ADD JUMPDEST PUSH1 0x40 MLOAD DUP1 SWAP2 SUB SWAP1 RETURN JUMPDEST PUSH2 0x85 PUSH2 0xC5 CALLDATASIZE PUSH1 0x4 PUSH2 0x402 JUMP JUMPDEST PUSH2 0x130 JUMP JUMPDEST PUSH2 0xD3 PUSH1 0x5 SLOAD DUP2 JUMP JUMPDEST PUSH1 0x40 MLOAD SWAP1 DUP2 MSTORE PUSH1 0x20 ADD PUSH2 0xAE JUMP JUMPDEST PUSH2 0xD3 PUSH2 0xEF CALLDATASIZE PUSH1 0x4 PUSH2 0x402 JUMP JUMPDEST PUSH2 0x36C JUMP JUMPDEST PUSH2 0x85 PUSH2 0x102 CALLDATASIZE PUSH1 0x4 PUSH2 0x402 JUMP JUMPDEST PUSH2 0x383 JUMP JUMPDEST PUSH2 0xD3 PUSH1 0x6 SLOAD DUP2 JUMP JUMPDEST PUSH1 0x2 DUP2 PUSH1 0x3 DUP2 LT PUSH2 0x120 JUMPI PUSH1 0x0 DUP1 REVERT JUMPDEST ADD SLOAD PUSH1 0x1 PUSH1 0x1 PUSH1 0xA0 SHL SUB AND SWAP1 POP DUP2 JUMP JUMPDEST PUSH1 0x0 SLOAD JUMPDEST DUP1 ISZERO PUSH2 0x361 JUMPI DUP1 PUSH1 0x1 AND PUSH1 0x1 EQ ISZERO PUSH2 0x152 JUMPI PUSH1 0x1 NOT AND PUSH1 0x2 OR PUSH2 0x134 JUMP JUMPDEST DUP1 PUSH1 0x4 AND PUSH1 0x4 EQ ISZERO PUSH2 0x167 JUMPI PUSH1 0x4 NOT AND PUSH2 0x361 JUMP JUMPDEST DUP1 PUSH1 0x8 AND PUSH1 0x8 EQ ISZERO PUSH2 0x1A5 JUMPI DUP2 PUSH1 0x1 EQ DUP1 ISZERO PUSH2 0x190 JUMPI POP PUSH1 0x2 PUSH1 0x0 ADD SLOAD PUSH1 0x1 PUSH1 0x1 PUSH1 0xA0 SHL SUB AND CALLER EQ JUMPDEST ISZERO PUSH2 0x1A5 JUMPI PUSH1 0x0 SWAP2 POP PUSH1 0x8 NOT AND PUSH1 0x10 OR PUSH2 0x134 JUMP JUMPDEST DUP1 PUSH1 0x20 AND PUSH1 0x20 EQ ISZERO PUSH2 0x214 JUMPI DUP2 PUSH1 0x2 EQ DUP1 ISZERO PUSH2 0x1CD JUMPI POP PUSH1 0x2 DUP1 ADD SLOAD PUSH1 0x1 PUSH1 0x1 PUSH1 0xA0 SHL SUB AND CALLER EQ JUMPDEST ISZERO PUSH2 0x1E2 JUMPI PUSH1 0x0 SWAP2 POP PUSH1 0x20 NOT AND PUSH1 0x40 OR PUSH2 0x134 JUMP JUMPDEST DUP2 PUSH1 0x6 EQ DUP1 ISZERO PUSH2 0x1FE JUMPI POP PUSH1 0x2 DUP1 ADD SLOAD PUSH1 0x1 PUSH1 0x1 PUSH1 0xA0 SHL SUB AND CALLER EQ JUMPDEST ISZERO PUSH2 0x214 JUMPI PUSH1 0x0 SWAP2 POP PUSH1 0x20 NOT AND PUSH2 0x100 OR PUSH2 0x134 JUMP JUMPDEST DUP1 PUSH1 0x40 AND PUSH1 0x40 EQ ISZERO PUSH2 0x284 JUMPI DUP2 PUSH1 0x3 EQ DUP1 ISZERO PUSH2 0x23D JUMPI POP PUSH1 0x2 PUSH1 0x0 ADD SLOAD PUSH1 0x1 PUSH1 0x1 PUSH1 0xA0 SHL SUB AND CALLER EQ JUMPDEST ISZERO PUSH2 0x252 JUMPI PUSH1 0x0 SWAP2 POP PUSH1 0x40 NOT AND PUSH1 0x4 OR PUSH2 0x134 JUMP JUMPDEST DUP2 PUSH1 0x4 EQ DUP1 ISZERO PUSH2 0x26F JUMPI POP PUSH1 0x2 PUSH1 0x0 ADD SLOAD PUSH1 0x1 PUSH1 0x1 PUSH1 0xA0 SHL SUB AND CALLER EQ JUMPDEST ISZERO PUSH2 0x284 JUMPI PUSH1 0x0 SWAP2 POP PUSH1 0x40 NOT AND PUSH1 0x80 OR PUSH2 0x134 JUMP JUMPDEST DUP1 PUSH1 0x80 AND PUSH1 0x80 EQ ISZERO PUSH2 0x2C2 JUMPI DUP2 PUSH1 0x5 EQ DUP1 ISZERO PUSH2 0x2AD JUMPI POP PUSH1 0x2 PUSH1 0x1 ADD SLOAD PUSH1 0x1 PUSH1 0x1 PUSH1 0xA0 SHL SUB AND CALLER EQ JUMPDEST ISZERO PUSH2 0x2C2 JUMPI PUSH1 0x0 SWAP2 POP PUSH1 0x80 NOT AND PUSH1 0x4 OR PUSH2 0x134 JUMP JUMPDEST DUP1 PUSH2 0x100 AND PUSH2 0x100 EQ ISZERO PUSH2 0x303 JUMPI DUP2 PUSH1 0x7 EQ DUP1 ISZERO PUSH2 0x2ED JUMPI POP PUSH1 0x2 PUSH1 0x1 ADD SLOAD PUSH1 0x1 PUSH1 0x1 PUSH1 0xA0 SHL SUB AND CALLER EQ JUMPDEST ISZERO PUSH2 0x303 JUMPI PUSH1 0x0 SWAP2 POP PUSH2 0x100 NOT AND PUSH1 0x4 OR PUSH2 0x134 JUMP JUMPDEST DUP1 PUSH1 0x2 AND PUSH1 0x2 EQ ISZERO PUSH2 0x346 JUMPI PUSH1 0x6 SLOAD PUSH2 0x31D SWAP1 PUSH1 0x4 PUSH2 0x431 JUMP JUMPDEST PUSH1 0x5 SLOAD SGT ISZERO PUSH2 0x332 JUMPI PUSH1 0x2 NOT AND PUSH1 0x4 OR PUSH2 0x134 JUMP JUMPDEST PUSH1 0x2 NOT AND PUSH1 0x1 PUSH1 0x0 DUP2 ADD SSTORE PUSH2 0x208 OR PUSH2 0x134 JUMP JUMPDEST DUP1 PUSH2 0x410 AND PUSH2 0x410 EQ ISZERO PUSH2 0x361 JUMPI PUSH2 0x410 NOT AND PUSH1 0x20 OR PUSH2 0x134 JUMP JUMPDEST DUP1 PUSH1 0x0 DUP1 JUMPDEST ADD SSTORE POP POP JUMP JUMPDEST PUSH1 0x0 DUP2 PUSH1 0x2 DUP2 LT PUSH2 0x37C JUMPI PUSH1 0x0 DUP1 REVERT JUMPDEST ADD SLOAD SWAP1 POP DUP2 JUMP JUMPDEST PUSH1 0x1 SLOAD JUMPDEST DUP1 ISZERO PUSH2 0x3F8 JUMPI DUP1 PUSH1 0x2 AND PUSH1 0x2 EQ ISZERO PUSH2 0x3F8 JUMPI DUP2 PUSH1 0x1 EQ DUP1 ISZERO PUSH2 0x3B6 JUMPI POP PUSH1 0x2 PUSH1 0x0 ADD SLOAD PUSH1 0x1 PUSH1 0x1 PUSH1 0xA0 SHL SUB AND CALLER EQ JUMPDEST ISZERO PUSH2 0x3CB JUMPI PUSH1 0x0 SWAP2 POP PUSH1 0x2 NOT AND PUSH1 0x2 OR PUSH2 0x387 JUMP JUMPDEST DUP2 PUSH1 0x2 EQ DUP1 ISZERO PUSH2 0x3E8 JUMPI POP PUSH1 0x2 PUSH1 0x0 ADD SLOAD PUSH1 0x1 PUSH1 0x1 PUSH1 0xA0 SHL SUB AND CALLER EQ JUMPDEST ISZERO PUSH2 0x3F8 JUMPI PUSH2 0x208 PUSH1 0x0 SSTORE PUSH1 0x2 NOT AND JUMPDEST DUP1 PUSH1 0x0 PUSH1 0x1 PUSH2 0x366 JUMP JUMPDEST PUSH1 0x0 PUSH1 0x20 DUP3 DUP5 SUB SLT ISZERO PUSH2 0x414 JUMPI PUSH1 0x0 DUP1 REVERT JUMPDEST POP CALLDATALOAD SWAP2 SWAP1 POP JUMP JUMPDEST PUSH4 0x4E487B71 PUSH1 0xE0 SHL PUSH1 0x0 MSTORE PUSH1 0x11 PUSH1 0x4 MSTORE PUSH1 0x24 PUSH1 0x0 REVERT JUMPDEST PUSH1 0x0 PUSH1 0x1 PUSH1 0x1 PUSH1 0xFF SHL SUB DUP2 DUP5 SGT DUP3 DUP5 SGT DUP1 DUP3 AND DUP7 DUP5 DIV DUP7 GT AND ISZERO PUSH2 0x457 JUMPI PUSH2 0x457 PUSH2 0x41B JUMP JUMPDEST PUSH1 0x1 PUSH1 0xFF SHL PUSH1 0x0 DUP8 SLT DUP3 DUP2 AND DUP8 DUP4 SDIV DUP10 SLT AND ISZERO PUSH2 0x476 JUMPI PUSH2 0x476 PUSH2 0x41B JUMP JUMPDEST PUSH1 0x0 DUP8 SLT SWAP3 POP DUP8 DUP3 SDIV DUP8 SLT DUP5 DUP5 AND AND ISZERO PUSH2 0x492 JUMPI PUSH2 0x492 PUSH2 0x41B JUMP JUMPDEST DUP8 DUP6 SDIV DUP8 SLT DUP2 DUP5 AND AND ISZERO PUSH2 0x4A8 JUMPI PUSH2 0x4A8 PUSH2 0x41B JUMP JUMPDEST POP POP POP SWAP3 SWAP1 SWAP4 MUL SWAP4 SWAP3 POP POP POP JUMP INVALID LOG2 PUSH5 0x6970667358 0x22 SLT KECCAK256 ORIGIN LOG2 EQ JUMPI 0x1E SAR GT 0xD6 SWAP9 0xC3 CALLCODE 0xC4 0xBE DUP1 DUP4 0xBC 0xB5 LOG4 0x21 0xE3 CREATE REVERT 0xE7 0xA5 PUSH20 0xDB525B17851E164736F6C634300080900330000 "},"methodIdentifiers":{"SubChoreography_1sp0n7o(uint256)":"ae82ae4b","bond()":"64c9ec6f","enact(uint256)":"5e9cc2a9","participants(uint256)":"35c1d349","setWeeklyRent(int256)":"1fc8dead","tokenState(uint256)":"9745cc3d","weeklyRent()":"f2adb39b"}}}}}