{"tests/output/contracts/rental-agreement/RA_ProcessExecution.sol":{"RA_ProcessExecution":{"abi":[{"inputs":[{"internalType":"address[3]","name":"_participants","type":"address[3]"}],"stateMutability":"nonpayable","type":"constructor"},{"inputs":[{"internalType":"uint256","name":"id","type":"uint256"}],"name":"SubChoreography_1sp0n7o","outputs":[],"stateMutability":"nonpayable","type":"function"},{"inputs":[],"name":"bond","outputs":[{"internalType":"int256","name":"","type":"int256"}],"stateMutability":"view","type":"function"},{"inputs":[{"internalType":"uint256","name":"id","type":"uint256"}],"name":"enact","outputs":[],"stateMutability":"nonpayable","type":"function"},{"inputs":[{"internalType":"uint256","name":"","type":"uint256"}],"name":"participants","outputs":[{"internalType":"address","name":"","type":"address"}],"stateMutability":"view","type":"function"},{"inputs":[{"internalType":"int256","name":"_weeklyRent","type":"int256"}],"name":"setWeeklyRent","outputs":[],"stateMutability":"nonpayable","type":"function"},{"inputs":[{"internalType":"uint256","name":"","type":"uint256"}],"name":"tokenState","outputs":[{"internalType":"uint256","name":"","type":"uint256"}],"stateMutability":"view","type":"function"},{"inputs":[],"name":"weeklyRent","outputs":[{"internalType":"int256","name":"","type":"int256"}],"stateMutability":"view","type":"function"}],"evm":{"bytecode":{"linkReferences":{},"object":"6080604052610fa06005556103e860065534801561001c57600080fd5b5060405161061a38038061061a83398101604081905261003b916100d8565b610048600282600361004f565b505061016a565b8260038101928215610097579160200282015b8281111561009757825182546001600160a01b0319166001600160a01b03909116178255602090920191600190910190610062565b506100a39291506100a7565b5090565b5b808211156100a357600081556001016100a8565b80516001600160a01b03811681146100d357600080fd5b919050565b6000606082840312156100ea57600080fd5b82601f8301126100f957600080fd5b604051606081016001600160401b038111828210171561012957634e487b7160e01b600052604160045260246000fd5b60405280606084018581111561013e57600080fd5b845b8181101561015f57610151816100bc565b835260209283019201610140565b509195945050505050565b6104a1806101796000396000f3fe608060405234801561001057600080fd5b506004361061006d5760003560e01c80631fc8dead1461007257806335c1d349146100875780635e9cc2a9146100b757806364c9ec6f146100ca5780639745cc3d146100e1578063ae82ae4b146100f4578063f2adb39b14610107575b600080fd5b6100856100803660046103b7565b600655565b005b61009a6100953660046103b7565b610110565b6040516001600160a01b0390911681526020015b60405180910390f35b6100856100c53660046103b7565b610130565b6100d360055481565b6040519081526020016100ae565b6100d36100ef3660046103b7565b610322565b6100856101023660046103b7565b610339565b6100d360065481565b6002816003811061012057600080fd5b01546001600160a01b0316905081565b6000545b80156103175780600216600214156101785781600114801561016357506002600001546001600160a01b031633145b15610178576000915060021916600417610134565b80600816600814156101e6578160021480156101a0575060028001546001600160a01b031633145b156101b5576000915060081916601017610134565b8160061480156101d1575060028001546001600160a01b031633145b156101e6576000915060081916604017610134565b806010166010141561024f5781600314801561020f57506002600001546001600160a01b031633145b1561021d5760101916610317565b81600414801561023a57506002600001546001600160a01b031633145b1561024f576000915060101916602017610134565b80602016602014156102865781600514801561027857506002600101546001600160a01b031633145b156102865760201916610317565b80604016604014156102bd578160071480156102af57506002600101546001600160a01b031633145b156102bd5760401916610317565b80600116600114156102fc576006546102d79060046103e6565b60055413156102e95760011916610317565b6001191660016000810155608217610134565b80610104166101041415610317576101041916600817610134565b806000805b01555050565b6000816002811061033257600080fd5b0154905081565b6001545b80156103ad5780600116600114156103ad5781600114801561036c57506002600001546001600160a01b031633145b1561038157600091506001191660011761033d565b81600214801561039e57506002600001546001600160a01b031633145b156103ad576082600055600119165b806000600161031c565b6000602082840312156103c957600080fd5b5035919050565b634e487b7160e01b600052601160045260246000fd5b60006001600160ff1b038184138284138082168684048611161561040c5761040c6103d0565b600160ff1b600087128281168783058912161561042b5761042b6103d0565b60008712925087820587128484161615610447576104476103d0565b8785058712818416161561045d5761045d6103d0565b50505092909302939250505056fea264697066735822122052cc4abf0a989d863f484b7472e2629933e8ca32f4f28945c3f2b7908d082efc64736f6c63430008090033","opcodes":"PUSH1 0x80 PUSH1 0x40 MSTORE PUSH2 0xFA0 PUSH1 0x5 SSTORE PUSH2 0x3E8 PUSH1 0x6 SSTORE CALLVALUE DUP1 ISZERO PUSH2 0x1C JUMPI PUSH1 0x0 DUP1 REVERT JUMPDEST POP PUSH1 0x40 MLOAD PUSH2 0x61A CODESIZE SUB DUP1 PUSH2 0x61A DUP4 CODECOPY DUP2 ADD PUSH1 0x40 DUP2 SWAP1 MSTORE PUSH2 0x3B SWAP2 PUSH2 0xD8 JUMP JUMPDEST PUSH2 0x48 PUSH1 0x2 DUP3 PUSH1 0x3 PUSH2 0x4F JUMP JUMPDEST POP POP PUSH2 0x16A JUMP JUMPDEST DUP3 PUSH1 0x3 DUP2 ADD SWAP3 DUP3 ISZERO PUSH2 0x97 JUMPI SWAP2 PUSH1 0x20 MUL DUP3 ADD JUMPDEST DUP3 DUP2 GT ISZERO PUSH2 0x97 JUMPI DUP3 MLOAD DUP3 SLOAD PUSH1 0x1 PUSH1 0x1 PUSH1 0xA0 SHL SUB NOT AND PUSH1 0x1 PUSH1 0x1 PUSH1 0xA0 SHL SUB SWAP1 SWAP2 AND OR DUP3 SSTORE PUSH1 0x20 SWAP1 SWAP3 ADD SWAP2 PUSH1 0x1 SWAP1 SWAP2 ADD SWAP1 PUSH2 0x62 JUMP JUMPDEST POP PUSH2 0xA3 SWAP3 SWAP2 POP PUSH2 0xA7 JUMP JUMPDEST POP SWAP1 JUMP JUMPDEST JUMPDEST DUP1 DUP3 GT ISZERO PUSH2 0xA3 JUMPI PUSH1 0x0 DUP2 SSTORE PUSH1 0x1 ADD PUSH2 0xA8 JUMP JUMPDEST DUP1 MLOAD PUSH1 0x1 PUSH1 0x1 PUSH1 0xA0 SHL SUB DUP2 AND DUP2 EQ PUSH2 0xD3 JUMPI PUSH1 0x0 DUP1 REVERT JUMPDEST SWAP2 SWAP1 POP JUMP JUMPDEST PUSH1 0x0 PUSH1 0x60 DUP3 DUP5 SUB SLT ISZERO PUSH2 0xEA JUMPI PUSH1 0x0 DUP1 REVERT JUMPDEST DUP3 PUSH1 0x1F DUP4 ADD SLT PUSH2 0xF9 JUMPI PUSH1 0x0 DUP1 REVERT JUMPDEST PUSH1 0x40 MLOAD PUSH1 0x60 DUP2 ADD PUSH1 0x1 PUSH1 0x1 PUSH1 0x40 SHL SUB DUP2 GT DUP3 DUP3 LT OR ISZERO PUSH2 0x129 JUMPI PUSH4 0x4E487B71 PUSH1 0xE0 SHL PUSH1 0x0 MSTORE PUSH1 0x41 PUSH1 0x4 MSTORE PUSH1 0x24 PUSH1 0x0 REVERT JUMPDEST PUSH1 0x40 MSTORE DUP1 PUSH1 0x60 DUP5 ADD DUP6 DUP2 GT ISZERO PUSH2 0x13E JUMPI PUSH1 0x0 DUP1 REVERT JUMPDEST DUP5 JUMPDEST DUP2 DUP2 LT ISZERO PUSH2 0x15F JUMPI PUSH2 0x151 DUP2 PUSH2 0xBC JUMP JUMPDEST DUP4 MSTORE PUSH1 0x20 SWAP3 DUP4 ADD SWAP3 ADD PUSH2 0x140 JUMP JUMPDEST POP SWAP2 SWAP6 SWAP5 POP POP POP POP POP JUMP JUMPDEST PUSH2 0x4A1 DUP1 PUSH2 0x179 PUSH1 0x0 CODECOPY PUSH1 0x0 RETURN INVALID PUSH1 0x80 PUSH1 0x40 MSTORE CALLVALUE DUP1 ISZERO PUSH2 0x10 JUMPI PUSH1 0x0 DUP1 REVERT JUMPDEST POP PUSH1 0x4 CALLDATASIZE LT PUSH2 0x6D JUMPI PUSH1 0x0 CALLDATALOAD PUSH1 0xE0 SHR DUP1 PUSH4 0x1FC8DEAD EQ PUSH2 0x72 JUMPI DUP1 PUSH4 0x35C1D349 EQ PUSH2 0x87 JUMPI DUP1 PUSH4 0x5E9CC2A9 EQ PUSH2 0xB7 JUMPI DUP1 PUSH4 0x64C9EC6F EQ PUSH2 0xCA JUMPI DUP1 PUSH4 0x9745CC3D EQ PUSH2 0xE1 JUMPI DUP1 PUSH4 0xAE82AE4B EQ PUSH2 0xF4 JUMPI DUP1 PUSH4 0xF2ADB39B EQ PUSH2 0x107 JUMPI JUMPDEST PUSH1 0x0 DUP1 REVERT JUMPDEST PUSH2 0x85 PUSH2 0x80 CALLDATASIZE PUSH1 0x4 PUSH2 0x3B7 JUMP JUMPDEST PUSH1 0x6 SSTORE JUMP JUMPDEST STOP JUMPDEST PUSH2 0x9A PUSH2 0x95 CALLDATASIZE PUSH1 0x4 PUSH2 0x3B7 JUMP JUMPDEST PUSH2 0x110 JUMP JUMPDEST PUSH1 0x40 MLOAD PUSH1 0x1 PUSH1 0x1 PUSH1 0xA0 SHL SUB SWAP1 SWAP2 AND DUP2 MSTORE PUSH1 0x20 ADD JUMPDEST PUSH1 0x40 MLOAD DUP1 SWAP2 SUB SWAP1 RETURN JUMPDEST PUSH2 0x85 PUSH2 0xC5 CALLDATASIZE PUSH1 0x4 PUSH2 0x3B7 JUMP JUMPDEST PUSH2 0x130 JUMP JUMPDEST PUSH2 0xD3 PUSH1 0x5 SLOAD DUP2 JUMP JUMPDEST PUSH1 0x40 MLOAD SWAP1 DUP2 MSTORE PUSH1 0x20 ADD PUSH2 0xAE JUMP JUMPDEST PUSH2 0xD3 PUSH2 0xEF CALLDATASIZE PUSH1 0x4 PUSH2 0x3B7 JUMP JUMPDEST PUSH2 0x322 JUMP JUMPDEST PUSH2 0x85 PUSH2 0x102 CALLDATASIZE PUSH1 0x4 PUSH2 0x3B7 JUMP JUMPDEST PUSH2 0x339 JUMP JUMPDEST PUSH2 0xD3 PUSH1 0x6 SLOAD DUP2 JUMP JUMPDEST PUSH1 0x2 DUP2 PUSH1 0x3 DUP2 LT PUSH2 0x120 JUMPI PUSH1 0x0 DUP1 REVERT JUMPDEST ADD SLOAD PUSH1 0x1 PUSH1 0x1 PUSH1 0xA0 SHL SUB AND SWAP1 POP DUP2 JUMP JUMPDEST PUSH1 0x0 SLOAD JUMPDEST DUP1 ISZERO PUSH2 0x317 JUMPI DUP1 PUSH1 0x2 AND PUSH1 0x2 EQ ISZERO PUSH2 0x178 JUMPI DUP2 PUSH1 0x1 EQ DUP1 ISZERO PUSH2 0x163 JUMPI POP PUSH1 0x2 PUSH1 0x0 ADD SLOAD PUSH1 0x1 PUSH1 0x1 PUSH1 0xA0 SHL SUB AND CALLER EQ JUMPDEST ISZERO PUSH2 0x178 JUMPI PUSH1 0x0 SWAP2 POP PUSH1 0x2 NOT AND PUSH1 0x4 OR PUSH2 0x134 JUMP JUMPDEST DUP1 PUSH1 0x8 AND PUSH1 0x8 EQ ISZERO PUSH2 0x1E6 JUMPI DUP2 PUSH1 0x2 EQ DUP1 ISZERO PUSH2 0x1A0 JUMPI POP PUSH1 0x2 DUP1 ADD SLOAD PUSH1 0x1 PUSH1 0x1 PUSH1 0xA0 SHL SUB AND CALLER EQ JUMPDEST ISZERO PUSH2 0x1B5 JUMPI PUSH1 0x0 SWAP2 POP PUSH1 0x8 NOT AND PUSH1 0x10 OR PUSH2 0x134 JUMP JUMPDEST DUP2 PUSH1 0x6 EQ DUP1 ISZERO PUSH2 0x1D1 JUMPI POP PUSH1 0x2 DUP1 ADD SLOAD PUSH1 0x1 PUSH1 0x1 PUSH1 0xA0 SHL SUB AND CALLER EQ JUMPDEST ISZERO PUSH2 0x1E6 JUMPI PUSH1 0x0 SWAP2 POP PUSH1 0x8 NOT AND PUSH1 0x40 OR PUSH2 0x134 JUMP JUMPDEST DUP1 PUSH1 0x10 AND PUSH1 0x10 EQ ISZERO PUSH2 0x24F JUMPI DUP2 PUSH1 0x3 EQ DUP1 ISZERO PUSH2 0x20F JUMPI POP PUSH1 0x2 PUSH1 0x0 ADD SLOAD PUSH1 0x1 PUSH1 0x1 PUSH1 0xA0 SHL SUB AND CALLER EQ JUMPDEST ISZERO PUSH2 0x21D JUMPI PUSH1 0x10 NOT AND PUSH2 0x317 JUMP JUMPDEST DUP2 PUSH1 0x4 EQ DUP1 ISZERO PUSH2 0x23A JUMPI POP PUSH1 0x2 PUSH1 0x0 ADD SLOAD PUSH1 0x1 PUSH1 0x1 PUSH1 0xA0 SHL SUB AND CALLER EQ JUMPDEST ISZERO PUSH2 0x24F JUMPI PUSH1 0x0 SWAP2 POP PUSH1 0x10 NOT AND PUSH1 0x20 OR PUSH2 0x134 JUMP JUMPDEST DUP1 PUSH1 0x20 AND PUSH1 0x20 EQ ISZERO PUSH2 0x286 JUMPI DUP2 PUSH1 0x5 EQ DUP1 ISZERO PUSH2 0x278 JUMPI POP PUSH1 0x2 PUSH1 0x1 ADD SLOAD PUSH1 0x1 PUSH1 0x1 PUSH1 0xA0 SHL SUB AND CALLER EQ JUMPDEST ISZERO PUSH2 0x286 JUMPI PUSH1 0x20 NOT AND PUSH2 0x317 JUMP JUMPDEST DUP1 PUSH1 0x40 AND PUSH1 0x40 EQ ISZERO PUSH2 0x2BD JUMPI DUP2 PUSH1 0x7 EQ DUP1 ISZERO PUSH2 0x2AF JUMPI POP PUSH1 0x2 PUSH1 0x1 ADD SLOAD PUSH1 0x1 PUSH1 0x1 PUSH1 0xA0 SHL SUB AND CALLER EQ JUMPDEST ISZERO PUSH2 0x2BD JUMPI PUSH1 0x40 NOT AND PUSH2 0x317 JUMP JUMPDEST DUP1 PUSH1 0x1 AND PUSH1 0x1 EQ ISZERO PUSH2 0x2FC JUMPI PUSH1 0x6 SLOAD PUSH2 0x2D7 SWAP1 PUSH1 0x4 PUSH2 0x3E6 JUMP JUMPDEST PUSH1 0x5 SLOAD SGT ISZERO PUSH2 0x2E9 JUMPI PUSH1 0x1 NOT AND PUSH2 0x317 JUMP JUMPDEST PUSH1 0x1 NOT AND PUSH1 0x1 PUSH1 0x0 DUP2 ADD SSTORE PUSH1 0x82 OR PUSH2 0x134 JUMP JUMPDEST DUP1 PUSH2 0x104 AND PUSH2 0x104 EQ ISZERO PUSH2 0x317 JUMPI PUSH2 0x104 NOT AND PUSH1 0x8 OR PUSH2 0x134 JUMP JUMPDEST DUP1 PUSH1 0x0 DUP1 JUMPDEST ADD SSTORE POP POP JUMP JUMPDEST PUSH1 0x0 DUP2 PUSH1 0x2 DUP2 LT PUSH2 0x332 JUMPI PUSH1 0x0 DUP1 REVERT JUMPDEST ADD SLOAD SWAP1 POP DUP2 JUMP JUMPDEST PUSH1 0x1 SLOAD JUMPDEST DUP1 ISZERO PUSH2 0x3AD JUMPI DUP1 PUSH1 0x1 AND PUSH1 0x1 EQ ISZERO PUSH2 0x3AD JUMPI DUP2 PUSH1 0x1 EQ DUP1 ISZERO PUSH2 0x36C JUMPI POP PUSH1 0x2 PUSH1 0x0 ADD SLOAD PUSH1 0x1 PUSH1 0x1 PUSH1 0xA0 SHL SUB AND CALLER EQ JUMPDEST ISZERO PUSH2 0x381 JUMPI PUSH1 0x0 SWAP2 POP PUSH1 0x1 NOT AND PUSH1 0x1 OR PUSH2 0x33D JUMP JUMPDEST DUP2 PUSH1 0x2 EQ DUP1 ISZERO PUSH2 0x39E JUMPI POP PUSH1 0x2 PUSH1 0x0 ADD SLOAD PUSH1 0x1 PUSH1 0x1 PUSH1 0xA0 SHL SUB AND CALLER EQ JUMPDEST ISZERO PUSH2 0x3AD JUMPI PUSH1 0x82 PUSH1 0x0 SSTORE PUSH1 0x1 NOT AND JUMPDEST DUP1 PUSH1 0x0 PUSH1 0x1 PUSH2 0x31C JUMP JUMPDEST PUSH1 0x0 PUSH1 0x20 DUP3 DUP5 SUB SLT ISZERO PUSH2 0x3C9 JUMPI PUSH1 0x0 DUP1 REVERT JUMPDEST POP CALLDATALOAD SWAP2 SWAP1 POP JUMP JUMPDEST PUSH4 0x4E487B71 PUSH1 0xE0 SHL PUSH1 0x0 MSTORE PUSH1 0x11 PUSH1 0x4 MSTORE PUSH1 0x24 PUSH1 0x0 REVERT JUMPDEST PUSH1 0x0 PUSH1 0x1 PUSH1 0x1 PUSH1 0xFF SHL SUB DUP2 DUP5 SGT DUP3 DUP5 SGT DUP1 DUP3 AND DUP7 DUP5 DIV DUP7 GT AND ISZERO PUSH2 0x40C JUMPI PUSH2 0x40C PUSH2 0x3D0 JUMP JUMPDEST PUSH1 0x1 PUSH1 0xFF SHL PUSH1 0x0 DUP8 SLT DUP3 DUP2 AND DUP8 DUP4 SDIV DUP10 SLT AND ISZERO PUSH2 0x42B JUMPI PUSH2 0x42B PUSH2 0x3D0 JUMP JUMPDEST PUSH1 0x0 DUP8 SLT SWAP3 POP DUP8 DUP3 SDIV DUP8 SLT DUP5 DUP5 AND AND ISZERO PUSH2 0x447 JUMPI PUSH2 0x447 PUSH2 0x3D0 JUMP JUMPDEST DUP8 DUP6 SDIV DUP8 SLT DUP2 DUP5 AND AND ISZERO PUSH2 0x45D JUMPI PUSH2 0x45D PUSH2 0x3D0 JUMP JUMPDEST POP POP POP SWAP3 SWAP1 SWAP4 MUL SWAP4 SWAP3 POP POP POP JUMP INVALID LOG2 PUSH5 0x6970667358 0x22 SLT KECCAK256 MSTORE 0xCC 0x4A 0xBF EXP SWAP9 SWAP14 DUP7 EXTCODEHASH BASEFEE 0x4B PUSH21 0x72E2629933E8CA32F4F28945C3F2B7908D082EFC64 PUSH20 0x6F6C634300080900330000000000000000000000 "},"methodIdentifiers":{"SubChoreography_1sp0n7o(uint256)":"ae82ae4b","bond()":"64c9ec6f","enact(uint256)":"5e9cc2a9","participants(uint256)":"35c1d349","setWeeklyRent(int256)":"1fc8dead","tokenState(uint256)":"9745cc3d","weeklyRent()":"f2adb39b"}}}}}