{
  "_format": "hh-sol-artifact-1",
  "contractName": "RA_ProcessExecution",
  "sourceName": "tests/output/contracts/rental-agreement/RA_ProcessExecution.sol",
  "abi": [
    {
      "inputs": [
        {
          "internalType": "address[3]",
          "name": "_participants",
          "type": "address[3]"
        }
      ],
      "stateMutability": "nonpayable",
      "type": "constructor"
    },
    {
      "inputs": [
        {
          "internalType": "uint256",
          "name": "id",
          "type": "uint256"
        }
      ],
      "name": "SubChoreography_1sp0n7o",
      "outputs": [],
      "stateMutability": "nonpayable",
      "type": "function"
    },
    {
      "inputs": [],
      "name": "bond",
      "outputs": [
        {
          "internalType": "int256",
          "name": "",
          "type": "int256"
        }
      ],
      "stateMutability": "view",
      "type": "function"
    },
    {
      "inputs": [
        {
          "internalType": "uint256",
          "name": "id",
          "type": "uint256"
        }
      ],
      "name": "enact",
      "outputs": [],
      "stateMutability": "nonpayable",
      "type": "function"
    },
    {
      "inputs": [
        {
          "internalType": "uint256",
          "name": "",
          "type": "uint256"
        }
      ],
      "name": "participants",
      "outputs": [
        {
          "internalType": "address",
          "name": "",
          "type": "address"
        }
      ],
      "stateMutability": "view",
      "type": "function"
    },
    {
      "inputs": [
        {
          "internalType": "int256",
          "name": "_weeklyRent",
          "type": "int256"
        }
      ],
      "name": "setWeeklyRent",
      "outputs": [],
      "stateMutability": "nonpayable",
      "type": "function"
    },
    {
      "inputs": [
        {
          "internalType": "uint256",
          "name": "",
          "type": "uint256"
        }
      ],
      "name": "tokenState",
      "outputs": [
        {
          "internalType": "uint256",
          "name": "",
          "type": "uint256"
        }
      ],
      "stateMutability": "view",
      "type": "function"
    },
    {
      "inputs": [],
      "name": "weeklyRent",
      "outputs": [
        {
          "internalType": "int256",
          "name": "",
          "type": "int256"
        }
      ],
      "stateMutability": "view",
      "type": "function"
    }
  ],
  "bytecode": "0x6080604052610fa06005556103e860065534801561001c57600080fd5b5060405161061a38038061061a83398101604081905261003b916100d8565b610048600282600361004f565b505061016a565b8260038101928215610097579160200282015b8281111561009757825182546001600160a01b0319166001600160a01b03909116178255602090920191600190910190610062565b506100a39291506100a7565b5090565b5b808211156100a357600081556001016100a8565b80516001600160a01b03811681146100d357600080fd5b919050565b6000606082840312156100ea57600080fd5b82601f8301126100f957600080fd5b604051606081016001600160401b038111828210171561012957634e487b7160e01b600052604160045260246000fd5b60405280606084018581111561013e57600080fd5b845b8181101561015f57610151816100bc565b835260209283019201610140565b509195945050505050565b6104a1806101796000396000f3fe608060405234801561001057600080fd5b506004361061006d5760003560e01c80631fc8dead1461007257806335c1d349146100875780635e9cc2a9146100b757806364c9ec6f146100ca5780639745cc3d146100e1578063ae82ae4b146100f4578063f2adb39b14610107575b600080fd5b6100856100803660046103b7565b600655565b005b61009a6100953660046103b7565b610110565b6040516001600160a01b0390911681526020015b60405180910390f35b6100856100c53660046103b7565b610130565b6100d360055481565b6040519081526020016100ae565b6100d36100ef3660046103b7565b610322565b6100856101023660046103b7565b610339565b6100d360065481565b6002816003811061012057600080fd5b01546001600160a01b0316905081565b6000545b80156103175780600216600214156101785781600114801561016357506002600001546001600160a01b031633145b15610178576000915060021916600417610134565b80600816600814156101e6578160021480156101a0575060028001546001600160a01b031633145b156101b5576000915060081916601017610134565b8160061480156101d1575060028001546001600160a01b031633145b156101e6576000915060081916604017610134565b806010166010141561024f5781600314801561020f57506002600001546001600160a01b031633145b1561021d5760101916610317565b81600414801561023a57506002600001546001600160a01b031633145b1561024f576000915060101916602017610134565b80602016602014156102865781600514801561027857506002600101546001600160a01b031633145b156102865760201916610317565b80604016604014156102bd578160071480156102af57506002600101546001600160a01b031633145b156102bd5760401916610317565b80600116600114156102fc576006546102d79060046103e6565b60055413156102e95760011916610317565b6001191660016000810155608217610134565b80610104166101041415610317576101041916600817610134565b806000805b01555050565b6000816002811061033257600080fd5b0154905081565b6001545b80156103ad5780600116600114156103ad5781600114801561036c57506002600001546001600160a01b031633145b1561038157600091506001191660011761033d565b81600214801561039e57506002600001546001600160a01b031633145b156103ad576082600055600119165b806000600161031c565b6000602082840312156103c957600080fd5b5035919050565b634e487b7160e01b600052601160045260246000fd5b60006001600160ff1b038184138284138082168684048611161561040c5761040c6103d0565b600160ff1b600087128281168783058912161561042b5761042b6103d0565b60008712925087820587128484161615610447576104476103d0565b8785058712818416161561045d5761045d6103d0565b50505092909302939250505056fea264697066735822122052cc4abf0a989d863f484b7472e2629933e8ca32f4f28945c3f2b7908d082efc64736f6c63430008090033",
  "linkReferences": {},
  "deployedLinkReferences": {}
}