{
  "_format": "hh-sol-artifact-1",
  "contractName": "OnlineOrder",
  "sourceName": "contracts/online_order.sol",
  "abi": [
    {
      "inputs": [
        {
          "internalType": "address[3]",
          "name": "_participants",
          "type": "address[3]"
        },
        {
          "internalType": "address[2]",
          "name": "_tokenAddresses",
          "type": "address[2]"
        }
      ],
      "stateMutability": "nonpayable",
      "type": "constructor"
    },
    {
      "inputs": [
        {
          "internalType": "uint256",
          "name": "id",
          "type": "uint256"
        }
      ],
      "name": "enact",
      "outputs": [],
      "stateMutability": "payable",
      "type": "function"
    },
    {
      "inputs": [],
      "name": "items",
      "outputs": [
        {
          "internalType": "bool",
          "name": "",
          "type": "bool"
        }
      ],
      "stateMutability": "view",
      "type": "function"
    },
    {
      "inputs": [
        {
          "internalType": "uint256",
          "name": "",
          "type": "uint256"
        }
      ],
      "name": "participants",
      "outputs": [
        {
          "internalType": "address",
          "name": "",
          "type": "address"
        }
      ],
      "stateMutability": "view",
      "type": "function"
    },
    {
      "inputs": [],
      "name": "tokenState",
      "outputs": [
        {
          "internalType": "uint256",
          "name": "",
          "type": "uint256"
        }
      ],
      "stateMutability": "view",
      "type": "function"
    },
    {
      "inputs": [
        {
          "internalType": "string",
          "name": "",
          "type": "string"
        }
      ],
      "name": "tokens",
      "outputs": [
        {
          "internalType": "address",
          "name": "",
          "type": "address"
        }
      ],
      "stateMutability": "view",
      "type": "function"
    }
  ],
  "bytecode": "0x608060405260016000556001600560006101000a81548160ff0219169083151502179055503480156200003157600080fd5b50604051620015ad380380620015ad83398181016040528101906200005791906200049f565b8160019060036200006a92919062000163565b5080600060028110620000825762000081620004e6565b5b60200201516004604051620000979062000570565b908152602001604051809103902060006101000a81548173ffffffffffffffffffffffffffffffffffffffff021916908373ffffffffffffffffffffffffffffffffffffffff16021790555080600160028110620000fa57620000f9620004e6565b5b602002015160046040516200010f90620005d7565b908152602001604051809103902060006101000a81548173ffffffffffffffffffffffffffffffffffffffff021916908373ffffffffffffffffffffffffffffffffffffffff1602179055505050620005ee565b8260038101928215620001d2579160200282015b82811115620001d15782518260006101000a81548173ffffffffffffffffffffffffffffffffffffffff021916908373ffffffffffffffffffffffffffffffffffffffff1602179055509160200191906001019062000177565b5b509050620001e19190620001e5565b5090565b5b8082111562000200576000816000905550600101620001e6565b5090565b6000604051905090565b600080fd5b600080fd5b6000601f19601f8301169050919050565b7f4e487b7100000000000000000000000000000000000000000000000000000000600052604160045260246000fd5b620002638262000218565b810181811067ffffffffffffffff8211171562000285576200028462000229565b5b80604052505050565b60006200029a62000204565b9050620002a8828262000258565b919050565b600067ffffffffffffffff821115620002cb57620002ca62000229565b5b602082029050919050565b600080fd5b600073ffffffffffffffffffffffffffffffffffffffff82169050919050565b60006200030882620002db565b9050919050565b6200031a81620002fb565b81146200032657600080fd5b50565b6000815190506200033a816200030f565b92915050565b6000620003576200035184620002ad565b6200028e565b90508060208402830185811115620003745762000373620002d6565b5b835b81811015620003a157806200038c888262000329565b84526020840193505060208101905062000376565b5050509392505050565b600082601f830112620003c357620003c262000213565b5b6003620003d284828562000340565b91505092915050565b600067ffffffffffffffff821115620003f957620003f862000229565b5b602082029050919050565b60006200041b6200041584620003db565b6200028e565b90508060208402830185811115620004385762000437620002d6565b5b835b8181101562000465578062000450888262000329565b8452602084019350506020810190506200043a565b5050509392505050565b600082601f83011262000487576200048662000213565b5b60026200049684828562000404565b91505092915050565b60008060a08385031215620004b957620004b86200020e565b5b6000620004c985828601620003ab565b9250506060620004dc858286016200046f565b9150509250929050565b7f4e487b7100000000000000000000000000000000000000000000000000000000600052603260045260246000fd5b600081905092915050565b7f7573646300000000000000000000000000000000000000000000000000000000600082015250565b60006200055860048362000515565b9150620005658262000520565b600482019050919050565b60006200057d8262000549565b9150819050919050565b7f7774626300000000000000000000000000000000000000000000000000000000600082015250565b6000620005bf60048362000515565b9150620005cc8262000587565b600482019050919050565b6000620005e482620005b0565b9150819050919050565b610faf80620005fe6000396000f3fe60806040526004361061004a5760003560e01c806304c2320b1461004f57806335c1d3491461008c5780635e9cc2a9146100c9578063c06fad06146100e5578063e90dd9e214610110575b600080fd5b34801561005b57600080fd5b5061007660048036038101906100719190610a18565b61013b565b6040516100839190610aa2565b60405180910390f35b34801561009857600080fd5b506100b360048036038101906100ae9190610af3565b610184565b6040516100c09190610aa2565b60405180910390f35b6100e360048036038101906100de9190610af3565b6101ba565b005b3480156100f157600080fd5b506100fa6108a5565b6040516101079190610b3b565b60405180910390f35b34801561011c57600080fd5b506101256108b8565b6040516101329190610b65565b60405180910390f35b6004818051602081018201805184825260208301602085012081835280955050505050506000915054906101000a900473ffffffffffffffffffffffffffffffffffffffff1681565b6001816003811061019457600080fd5b016000915054906101000a900473ffffffffffffffffffffffffffffffffffffffff1681565b6000805490505b6000811461089a576001808216141561043957816001148015610245575060016000600381106101f4576101f3610b80565b5b0160009054906101000a900473ffffffffffffffffffffffffffffffffffffffff1673ffffffffffffffffffffffffffffffffffffffff163373ffffffffffffffffffffffffffffffffffffffff16145b156104385760011981169050600281179050600091506000600460405161026b90610c06565b908152602001604051809103902060009054906101000a900473ffffffffffffffffffffffffffffffffffffffff1673ffffffffffffffffffffffffffffffffffffffff1663313ce5676040518163ffffffff1660e01b815260040160206040518083038186803b1580156102df57600080fd5b505afa1580156102f3573d6000803e3d6000fd5b505050506040513d601f19601f820116820180604052508101906103179190610c54565b9050600460405161032790610c06565b908152602001604051809103902060009054906101000a900473ffffffffffffffffffffffffffffffffffffffff1673ffffffffffffffffffffffffffffffffffffffff166323b872dd336001806003811061038657610385610b80565b5b0160009054906101000a900473ffffffffffffffffffffffffffffffffffffffff1684600a6103b59190610de3565b600a6103c19190610e2e565b6040518463ffffffff1660e01b81526004016103df93929190610e88565b602060405180830381600087803b1580156103f957600080fd5b505af115801561040d573d6000803e3d6000fd5b505050506040513d601f19601f820116820180604052508101906104319190610eeb565b50506101c1565b5b600280821614156104fe5760011515600560009054906101000a900460ff161515141561047257600219811690506008811790506101c1565b8160021480156104e257506001806003811061049157610490610b80565b5b0160009054906101000a900473ffffffffffffffffffffffffffffffffffffffff1673ffffffffffffffffffffffffffffffffffffffff163373ffffffffffffffffffffffffffffffffffffffff16145b156104fd5760021981169050600481179050600091506101c1565b5b600480821614156105955781600314801561057957506001806003811061052857610527610b80565b5b0160009054906101000a900473ffffffffffffffffffffffffffffffffffffffff1673ffffffffffffffffffffffffffffffffffffffff163373ffffffffffffffffffffffffffffffffffffffff16145b156105945760041981169050600881179050600091506101c1565b5b6010808216141561062957816004148015610611575060016002600381106105c0576105bf610b80565b5b0160009054906101000a900473ffffffffffffffffffffffffffffffffffffffff1673ffffffffffffffffffffffffffffffffffffffff163373ffffffffffffffffffffffffffffffffffffffff16145b15610628576010198116905060008117905061089a565b5b60088082161415610899578160051480156106a457506001806003811061065357610652610b80565b5b0160009054906101000a900473ffffffffffffffffffffffffffffffffffffffff1673ffffffffffffffffffffffffffffffffffffffff163373ffffffffffffffffffffffffffffffffffffffff16145b156108985760081981169050601081179050600060046040516106c690610f64565b908152602001604051809103902060009054906101000a900473ffffffffffffffffffffffffffffffffffffffff1673ffffffffffffffffffffffffffffffffffffffff1663313ce5676040518163ffffffff1660e01b815260040160206040518083038186803b15801561073a57600080fd5b505afa15801561074e573d6000803e3d6000fd5b505050506040513d601f19601f820116820180604052508101906107729190610c54565b9050600460405161078290610f64565b908152602001604051809103902060009054906101000a900473ffffffffffffffffffffffffffffffffffffffff1673ffffffffffffffffffffffffffffffffffffffff166323b872dd3360016002600381106107e2576107e1610b80565b5b0160009054906101000a900473ffffffffffffffffffffffffffffffffffffffff1684600a6108119190610de3565b600161081d9190610e2e565b6040518463ffffffff1660e01b815260040161083b93929190610e88565b602060405180830381600087803b15801561085557600080fd5b505af1158015610869573d6000803e3d6000fd5b505050506040513d601f19601f8201168201806040525081019061088d9190610eeb565b5060009250506101c1565b5b5b806000819055505050565b600560009054906101000a900460ff1681565b60005481565b6000604051905090565b600080fd5b600080fd5b600080fd5b600080fd5b6000601f19601f8301169050919050565b7f4e487b7100000000000000000000000000000000000000000000000000000000600052604160045260246000fd5b610925826108dc565b810181811067ffffffffffffffff82111715610944576109436108ed565b5b80604052505050565b60006109576108be565b9050610963828261091c565b919050565b600067ffffffffffffffff821115610983576109826108ed565b5b61098c826108dc565b9050602081019050919050565b82818337600083830152505050565b60006109bb6109b684610968565b61094d565b9050828152602081018484840111156109d7576109d66108d7565b5b6109e2848285610999565b509392505050565b600082601f8301126109ff576109fe6108d2565b5b8135610a0f8482602086016109a8565b91505092915050565b600060208284031215610a2e57610a2d6108c8565b5b600082013567ffffffffffffffff811115610a4c57610a4b6108cd565b5b610a58848285016109ea565b91505092915050565b600073ffffffffffffffffffffffffffffffffffffffff82169050919050565b6000610a8c82610a61565b9050919050565b610a9c81610a81565b82525050565b6000602082019050610ab76000830184610a93565b92915050565b6000819050919050565b610ad081610abd565b8114610adb57600080fd5b50565b600081359050610aed81610ac7565b92915050565b600060208284031215610b0957610b086108c8565b5b6000610b1784828501610ade565b91505092915050565b60008115159050919050565b610b3581610b20565b82525050565b6000602082019050610b506000830184610b2c565b92915050565b610b5f81610abd565b82525050565b6000602082019050610b7a6000830184610b56565b92915050565b7f4e487b7100000000000000000000000000000000000000000000000000000000600052603260045260246000fd5b600081905092915050565b7f7573646300000000000000000000000000000000000000000000000000000000600082015250565b6000610bf0600483610baf565b9150610bfb82610bba565b600482019050919050565b6000610c1182610be3565b9150819050919050565b600060ff82169050919050565b610c3181610c1b565b8114610c3c57600080fd5b50565b600081519050610c4e81610c28565b92915050565b600060208284031215610c6a57610c696108c8565b5b6000610c7884828501610c3f565b91505092915050565b7f4e487b7100000000000000000000000000000000000000000000000000000000600052601160045260246000fd5b60008160011c9050919050565b6000808291508390505b6001851115610d0757808604811115610ce357610ce2610c81565b5b6001851615610cf25780820291505b8081029050610d0085610cb0565b9450610cc7565b94509492505050565b600082610d205760019050610ddc565b81610d2e5760009050610ddc565b8160018114610d445760028114610d4e57610d7d565b6001915050610ddc565b60ff841115610d6057610d5f610c81565b5b8360020a915084821115610d7757610d76610c81565b5b50610ddc565b5060208310610133831016604e8410600b8410161715610db25782820a905083811115610dad57610dac610c81565b5b610ddc565b610dbf8484846001610cbd565b92509050818404811115610dd657610dd5610c81565b5b81810290505b9392505050565b6000610dee82610abd565b9150610df983610c1b565b9250610e267fffffffffffffffffffffffffffffffffffffffffffffffffffffffffffffffff8484610d10565b905092915050565b6000610e3982610abd565b9150610e4483610abd565b9250817fffffffffffffffffffffffffffffffffffffffffffffffffffffffffffffffff0483118215151615610e7d57610e7c610c81565b5b828202905092915050565b6000606082019050610e9d6000830186610a93565b610eaa6020830185610a93565b610eb76040830184610b56565b949350505050565b610ec881610b20565b8114610ed357600080fd5b50565b600081519050610ee581610ebf565b92915050565b600060208284031215610f0157610f006108c8565b5b6000610f0f84828501610ed6565b91505092915050565b7f7774626300000000000000000000000000000000000000000000000000000000600082015250565b6000610f4e600483610baf565b9150610f5982610f18565b600482019050919050565b6000610f6f82610f41565b915081905091905056fea264697066735822122095f78b753e19db8833054a5cba3d6560965c90c866820df0ca42bc80d9337f5064736f6c63430008090033",
  "linkReferences": {},
  "deployedLinkReferences": {}
}